:020000040800F2
:10000000B8050020D5000008DD000008DF0000086A
:1000100000000000000000000000000000000000E0
:10002000000000000000000000000000E1000008E7
:100030000000000000000000E30000082730000876
:10004000E7000008E7000008E12C0008E7000008CE
:10005000E7000008CB080008E7000008E7000008F8
:10006000E7000008E7000008E7000008E7000008D4
:10007000E7000008E700000800000000E7000008B3
:1000800000000000E7000008000000000000000081
:10009000E700000800000000E7000008E700000893
:1000A000E7000008E7000008E7000008E535000861
:1000B000E7000008E7000008E7000008E700000884
:1000C0000348854600F052FB00480047C53C000845
:1000D000B80500200448804704480047FEE7FEE7D3
:1000E000FEE7FEE7FEE7FEE7D1300008C1000008AA
:1000F00030B50B46014600202022012409E00D46C0
:10010000D5409D4205D31D469540491B2546954047
:1001100040191546521E002DF1DC30BDF0B51FB45C
:100120000646002082B005464024019100901BE065
:10013000019922460F46304600F0B4F9049A059B17
:10014000801A994110D310461946224600F09AF9B8
:10015000361A8F410197224601200021009F00F0AE
:1001600091F938184D4100902046641E0028DFDCCC
:10017000019B00982946324607B0F0BDD2B201E09B
:100180000270401C491EFBD270470022F6E710B5F2
:1001900013460A4604461946FFF7F0FF204610BDF5
:1001A000024670B54A40D30FDB0740002DD04A000D
:1001B0002AD0010E140E000212020919400A520A36
:1001C0008418E50104465443000A120A2E045043E1
:1001D000A4194219200CC543AA18120C0125AD031D
:1001E000521C521912047F39240400D0521C1043AF
:1001F00001D44000491EC2B20C06C0092018401CA0
:100200004008802A02D003E0002070BD4008400072
:10021000002900DA0020184370BD0000F0B51FB4BB
:1002200088B00B990998002448400999C00F4900EB
:1002300049080991C0070B990090490049080B91A2
:1002400009990898A64608431CD00B990A980843B8
:1002500018D0099801244000420D4800410D09982A
:1002600024050003000B204309900B980003000BAA
:1002700020430B9050181C4940180022019014464E
:10028000104605E0002001460DB0F0BD032801DA5C
:10029000034600E003239C46C11A0AAE0AE05F0051
:1002A00008ADED5B4F00F75B7D430027AA187C414A
:1002B000491C5B1E6145F2DD410004AB5A5221042A
:1002C000120C0A43240C401C0828DFDB0198029022
:1002D0000099704601910090059B049A0799069831
:1002E00000F03FF9D0E700000DFCFFFFF0B50C4631
:1002F0005C4085B0E40FE40703944C0000266408DA
:1003000059009446490802460296224321D062468B
:100310000A431ED06200570D4A000E032303550DF9
:10032000012402462C492405781B1B0B360B401870
:1003300023432643614600901C46501AB44103D320
:100340000098401C009002E0921800985B41002841
:1003500003DA0020014605B0F0BD002001210905A7
:100360000746864611E064461D46141BB54106D378
:100370006546521BB341744607430C43A646CD075E
:1003800040084908284392185B4105460D43EAD1CD
:100390001046184313D06046194650407140084338
:1003A00006D06046101AB34106D20122002306E0AF
:1003B00000220123DB0702E00122D2435310009800
:1003C00074460105381C6141029C039D0019694176
:1003D00000F0BAF8BFE70000FD030000C217C10F2C
:1003E000504010B54018CA079623002100F073F85A
:1003F00010BDC20F410040020123400ADB05D207B5
:10040000090EC0187F2901DA00207047962903DC05
:100410009623591AC84001E096398840002AF4D042
:1004200040427047C20FD207400040080BD0C10DB8
:100430000723DB01C91840020905400A1143C2081D
:10044000400711437047002001467047CB0FDB0780
:10045000490010B5490802460A4307D00A0D07248F
:100460000903E401090B121B002A01DC002010BD66
:10047000C900440F0C43C100E018D205801800F0F9
:1004800022F810BD10B5202A04DB0146203A914025
:10049000002010BD914020239C1A0346E3401943DD
:1004A000904010BD10B5202A04DB0846203AD04009
:1004B000002110BD0B46D340D0402024A21A914009
:1004C0000843194610BD002904DA401C490001D137
:1004D00040084000704770B40024050C05D110247A
:1004E000000402D1002921D01124050E01D10002FF
:1004F0000834050F01D10001241D850F01D18000B2
:10050000A41C002801DB4000641C002908D0202521
:100510002E1B0D46F540A14000D001212943084380
:1005200001061B1B000ADB1D02D5002070BC7047B2
:10053000DB05181880180029F8DA401C4900F5D1AD
:1005400070BC40084000704710B5002B08DA00244A
:10055000401C614192185B411A4301D140084000A0
:1005600010BDF0B51FB482B005460C0003D008469C
:1005700003F076F802E003F073F8203002460090B2
:1005800021462846FFF77EFF049B059A04460F4646
:1005900018431143084314D0184610431BD0009849
:1005A00040210A1A18460599FFF77CFF05460E46BA
:1005B000009A05990498FFF765FF084305D00120CC
:1005C00004E02046394607B0F0BD0020C1170543BE
:1005D0000E432C43374300990E986305401A790562
:1005E000E40A00220C43FD0A0A3002D5002001462D
:1005F000E9E70105101969410C9C0D9D001969413D
:10060000FFF7A2FFDFE70000F0B5074608465840B5
:1006100087B0C00F049048000E46590040084908B2
:10062000BC1A884105D2384631461E4617460B464D
:1006300002465800400810434CD0300D039040054E
:100640005900400D490D0590401A0290402872DA79
:1006500018030121000B090508430190049800923A
:10066000002805D001995242002088410092019053
:10067000029840210A1A01990098FFF703FF0546E6
:100680000C466B4607CB00F083F8C0197141039A02
:100690000E0D0023D71756401A467A40164344D011
:1006A000049A002A2DD0029A012A039A15DC120519
:1006B000C01A914101263605001C7141D20F059EDA
:1006C000D2070093019202962A462346FFF749FF7C
:1006D00007B0F0BD38463146FAE71605224A0F4604
:1006E000B218C01AB74101210905001C4F4100187A
:1006F0007F41114618187941E20F10436D1964418A
:1007000013E0E2076D0815436408C2071443039A17
:1007100001261205C01A91413605001C7141CE0711
:10072000400830434908C01851412A462346FFF784
:100730000BFFCDE7FFE7049801224000C117121A12
:1007400000238B4104983146C417381AA141EEE7C3
:1007500030B40124E407634030BC55E730B40124D1
:10076000E407614030BC4FE70000E0FF064C012584
:10077000064E05E0E36807CC2B430C3C9847103449
:10078000B442F7D3FFF7A0FCA03E0008C03E00082B
:1007900010B5202A06DBCB170846203A1041C117B6
:1007A0000B4306E00B461341D0402024A21A91408F
:1007B0000843194610BD70B54B005B0803430BD0CE
:1007C0004B005C0D002633466542B341D417AD1A89
:1007D000A34102DB0020014670BD120530185141D3
:1007E00070BD000038B50446064805490068FFF7AB
:1007F0007FFC604300E0401E00900028FBD138BD24
:1008000040420F0014000020F8B5044600688168DB
:100810008907890F012902D10168C90722D181689E
:10082000114A10261140012500290ED18168294363
:1008300081600120FFF7D6FF00F04AFC07460CE07C
:1008400000F046FCC01B0A2807D9A06D3043A06504
:10085000E06D2843E0650120F8BD20680068C043D2
:10086000C007EDD10020F8BD1700008010B5044688
:1008700032212B2002F03CFA0002206032212A2093
:1008800002F036FA21680843001120603221292045
:1008900002F02EFA000260603221282002F028FACD
:1008A0006168084340420011606032212D2002F04F
:1008B0001FFA0002A06032212C2002F019FAA16870
:1008C000084300114042A06010BD10B5012000F0A7
:1008D00031FB10BDF8B5054604464035287D00269D
:1008E000012808D001202875206881688907890FB0
:1008F00001290ED101E00220F8BD0168C90708D026
:10090000A06D20210843A0650126002028753046EF
:10091000F8BDA16DFF220132914302221143A1656E
:10092000C1688907890F0091C16889088900C16081
:100930002068816892071143816000F0C9FB074677
:100940000EE000F0C5FBC01B0A2809D9A06D0221EA
:10095000884310210843A065002028750120F8BDB8
:10096000206880680028ECDB2068C168009A114389
:10097000C160A06D80088000401CA065C5E7000034
:10098000F8B506460D464036317D01290DD00121CE
:10099000317501688A68520709D5816D202211439B
:1009A0008165002030750120F8BD0220F8BD204B84
:1009B0006A68D80547109A421E4C8A6A2B681BD079
:1009C0005B035B0B1A438A622968490305D5A1685A
:1009D0000143A1600A20FFF705FF2868800302D5C4
:1009E000A0683843A0602868C0031DD5A068012115
:1009F00009060843A06017E05B035B0B9A438A6219
:100A00002968490302D5A1688143A1602868800351
:100A100002D5A068B843A0602868C00304D5A168C7
:100A2000012000068143A16000203075F8BD000060
:100A30000110000000270140806D70470068006CC5
:100A40007047000070B5040006D0A06D2646002552
:100A50004036002802D006E0012070BDE5653575FE
:100A6000204600F0E5F8A06DC00603D42168886830
:100A7000400705D5A06D10210843A0653575EBE74B
:100A8000A06DFF220132904302221043A0658868C6
:100A90008207920F5A48012A02D10A68D2072BD145
:100AA000032362689B079A4205D05B429A4202D0B8
:100AB0005B009A4209D10A69920092080A61216892
:100AC0000A6963681A430A610CE00A699200920895
:100AD0000A6181680F229204914381608168626893
:100AE000114381602168CA6818239A43CA6021684B
:100AF000CA68A3681A43CA608168012252069143FA
:100B000081608168228F520611438160206881686C
:100B1000C90004D481680122120711438160206852
:100B2000C168384A1140C1602169E068022923D0B8
:100B300000210843216A226B4903520011430843F4
:100B4000616B0843A16989030843E169C90308434C
:100B50002168CA681043C860A06A0146FF39C239DB
:100B600005D0E16A08432168CA681043C860606A1A
:100B70000121012802D00BE00421DAE7206A0028D5
:100B800023D0A06D20221043A065E06D0843E065EE
:100B9000206C012820681FD00169C90703D00169B2
:100BA00049084900016120684169C908C9004161DB
:100BB00020684169E26B11434161E565A06D8008E1
:100BC0008000401CA065002070BD2068C268012321
:100BD0001B041A43C260DBE70269FF239B009A43B0
:100BE000026120680269636CE66C1A43A36C3343AC
:100BF0001A430261206802690A430261D3E70000D8
:100C0000002701401902FEFF10B50068064988421E
:100C100009D10648416B42159143416305200E21DD
:100C2000000700F00FF910BD002401400010024041
:100C300000B500680A4985B088420FD10948416B68
:100C40004215114341630E200090032001900020C3
:100C5000029005206946000700F078F905B000BD54
:100C60000024014000100240F8B5044640692546C2
:100C700040350E4608280BD02068C068C00709D050
:100C8000A06D20210843A065002028750120F8BD33
:100C9000082700E00C2700F01BFA009011E0701C00
:100CA0000FD0002E05D000F013FA0099401AB04280
:100CB00007D9A06D04210843A065002028750320F2
:100CC000F8BD206800683842E9D0A06D01214902D2
:100CD0000843A0652068C16809058A0F0C21002A15
:100CE0001AD1226A002A17D10268120714D5826825
:100CF00053070122002B08DB43688B434360A06D40
:100D0000130298431043A06506E0A06D202318430A
:100D1000A065E06D1043E065A069002801D120685E
:100D200001600020F8BD000070B504462168002075
:100D30008968490721D425464035297D01291CD0E1
:100D400001212975E169012904D02046FFF75CFDE6
:100D5000002811D1A16D0A4A1140FF22013211432E
:100D6000A1650021E165297522681C2111602168B7
:100D70008A6804231A438A6070BD022070BD000097
:100D8000FEF1FFFF02484168022291434160704733
:100D90000058014070B500240246203251790229E2
:100DA00003D00421C16301243CE001680B680E25D7
:100DB000AB430B6001680B685B085B000B601A4B70
:100DC0000168994201D1012121E0174B1433994266
:100DD00001D110211BE0144B2833994201D1891510
:100DE00015E0114B3C33994201D189140FE00E4BB1
:100DF0005033994202D10121090408E00A4B6433BF
:100E0000994202D10121090501E001210906064BA1
:100E1000083B59600121517100211171816B00293A
:100E200000D08847204670BD0800024031B500F070
:100E30004FF9044600F04CF90099001B8842F9D3A1
:100E400038BD0000F0B500235DE001249C4022463F
:100E50000A4057D006685F000325BD402E43AC46CC
:100E60000660DD08AD002D182E6AAE465D07EF0E58
:100E70000F25BD40AE4375462E6286686546AE437B
:100E800086604568A5434560C4686546AC43C46058
:100E90009D081F4CAD002D19AF689C07260F0F242D
:100EA000B440A4463C4005273F07B84201D1002783
:100EB00014E0184FB84201D101270FE0164FB84295
:100EC00001D102270AE0154FB84201D1032705E0FE
:100ED000134FB84201D1052700E00627B740A742CB
:100EE00010D1AE686446A643AE600E4C25689543AB
:100EF0002560656895436560A5689543A560E568CC
:100F00009543E5605B1C0A46DA409ED1F0BD0000C7
:100F1000000001400004005000080050000C005088
:100F2000001C005000040140014901204870704736
:100F30001800002010B504494A69024202D04861F5
:100F4000FFF7F2FF10BD000000040140F8B50023D8
:100F50000124A2E027469F403A4070D04D68022D00
:100F600001D0122D14D1DD08AD002D1800952D6A89
:100F70005E07AC46F50E0F26AE46AE406546B5435D
:100F8000AC460E697546AE4065462E43009D2E6206
:100F90004D68012D05D0022D03D0112D01D0122D49
:100FA00016D185680326AC465D00AE46AE40654668
:100FB000B543AC46CE687546AE4065462E43866066
:100FC00046680D79BE43ED06ED0F9D403543456003
:100FD00006685F000325BD40AE46AE430D79B446BA
:100FE000AE07B60FBE4065462E430660C66875461E
:100FF000AE438D68BD403543C5604D68ED004BD5AF
:10100000294D6E6B26436E639E08284DB6007519F8
:10101000AC46AD689E07360F0F27B740BD43052786
:101020003F07B84201D1002715E0214FB84201D156
:10103000012710E01F4FB84202D102270BE02BE03E
:101040001D4FB84201D1032705E01C4FB84201D122
:10105000052700E00627B7402F436546AF60184DCF
:101060002E684F689643FF0300D516432E606E68C6
:101070004F689643BF0300D516436E60AE684F6855
:101080009643FF0200D51643AE60EE684F68964364
:10109000BF0200D51643EE605B1C0A681546DD40B2
:1010A00000D057E7F8BD00000010024000000140EA
:1010B0000004005000080050000C0050001C0050BC
:1010C00000040140002A01D08161704781627047AD
:1010D00001480068704700000000002002480168D5
:1010E000491C0160704700000000002010B5064850
:1010F0000168402211430160002000F007F800F071
:1011000019F8002010BD00000020024010B5044670
:1011100007487D21C9000068FEF7EAFF00F0B4FF30
:1011200000222146501E00F035F8002010BD0000BE
:101130001400002010B50C48416B0122114341639B
:10114000816B02041143816300221146501F00F09D
:1011500021F800221146901E00F01CF800221146D2
:10116000501E00F017F810BD00100240C106C90E55
:1011700001208840014908607047000080E100E0DC
:10118000C106C90E0120884001490860704700006F
:1011900000E100E010B501F019FD10BD0248016842
:1011A0000215114301607047007000400248016859
:1011B0004215114301607047007000400248016809
:1011C00010229143016070470070004002494A6854
:1011D00082434A6070470000007000400248016886
:1011E0008215114301607047007000400A4B1A6875
:1011F0009208920002431A600848036904221343CC
:101200000361012906D040BF20BF20BF016991437F
:101210000161704730BFF9E70070004000ED00E069
:10122000F8B501265E490746F602002035015B4B02
:101230005B4A4031102F6ED011DC012F6FD0022F8E
:101240006BD0042F6AD0082F1CD1C9680324240353
:10125000214073D0BD026C10A94274D097E0514C6C
:10126000202F03D0402F2FD0B7420BD10B69096933
:1012700003263604012731403F04B94203D19905C2
:1012800059E02846F8BD01256D04A94203D199070C
:10129000F8D54548F8BDB142FCD111688903F9D5AC
:1012A000116803200005014001200005091A09D03A
:1012B000091A05D0814201D13C48F8BD2046F8BD4D
:1012C0003B48F8BD3B48F8BDC9680125AD0629403B
:1012D00006D0A942F7D191688907F4D53648F8BD00
:1012E00011688901FBD5D068D1688002334D000FA9
:1012F0002D5C0802810FD068491CC00306D4106819
:10130000C00601D5204602E0184600E02C4868439C
:10131000FEF7EEFEF8BD3DE001E01CE029E0CC6800
:10132000A407A40F0CD0022C0DD0012C10D0032C3C
:10133000F0D1096989050029A3DBEBE716E002E09B
:1013400000F0D6F9E6E711684907E3D51846E1E76A
:1013500000F0DEF9DEE7CC680C26344006D0082C1D
:10136000F1D0042CF4D00C2CE3D0D3E700F0B0F98A
:10137000D0E7CC680327BF023C40F7D0B442E2D0AC
:10138000012292029442E3D0BC42D2D0C2E7A142F1
:10139000DED0BFE7916B4902E8D4BBE70024F4003C
:1013A0000010024000093D008890000020A10700C5
:1013B00040420F0080841E00006CDC02EC3D0008FF
:1013C00000127A00F8B504460068614D810601D428
:1013D00000057DD55E4E0027403EB06BC00004D4B2
:1013E000B06B31040843B06301275A480168C9054E
:1013F00011D40168821511430160FFF769FE009066
:1014000005E0FFF765FE0099401A642844D851486A
:101410000068C005F5D53168032000056268014009
:101420001040884205D10323A0681B05184088425C
:1014300008D09003800F032804D13068800301D5C1
:101440000120F8BD286903210904084029D00A4079
:10145000824202D02278920606D4A2680A408242D2
:101460001FD0208800051CD528692A6988430121DE
:10147000C9040A432A612A698A432A612861C0058E
:101480000FD5FFF725FE009008E0FFF721FE009939
:10149000411A3148814201D90320F8BD28698005ED
:1014A000F3D561688803800F032805D132680005F1
:1014B000824301400A4332602869032261681204B2
:1014C000114008432861002F06D0B16B012000E0D5
:1014D00002E000078143B1632078C00705D0E868C7
:1014E000E168800880000843E8602078800705D51F
:1014F000E8680C21884321690843E86020784007A8
:1015000006D5E86803218902884361690843E860D9
:101510002078000706D5E868032109038843A169FC
:101520000843E8602078400606D5E868012189066E
:101530008843216A0843E8602078000606D5E868F9
:10154000032189048843E1690843E8600020F8BD6D
:10155000401002400070004088130000F8B50546B6
:1015600053480E460068C007C00FB0420AD2504828
:10157000016849084900314301600068C007C00F95
:10158000B0426FD128784B4C800705D5E068F02138
:101590008843A9680843E0602878C00752D068688B
:1015A000022817D0032818D02168012818D08905EF
:1015B000002957DAE168890889000143E160FFF7F3
:1015C00087FD69680746022912D003291CD001292A
:1015D00026D033E021688903EAE721688901E7E73B
:1015E0004907E5E7FFF774FDC11B3348814223D863
:1015F000E0680007800F0228F4D123E0FFF768FDC0
:10160000C11B2D48814217D8E0680007800F0328CE
:10161000F4D117E0FFF75CFDC11B274881420BD8CE
:10162000E0680007800F0128F4D10BE0FFF750FDC0
:10163000C11B2148814201D90320F8BDE0680007A1
:10164000800FF3D11A480168C907C90FB1420BD9FD
:10165000016849084900314301600068C007C00FB4
:10166000B04201D00120F8BD2878400706D5E068D7
:10167000072109028843E9680843E06028780007E9
:1016800007D5E0680721C90288432969C9000843D2
:10169000E06000F03DF8E168084A0906090F515C76
:1016A000C840074908600020FFF730FD0020F8BD62
:1016B000002002400010024088130000DC3D0008BA
:1016C000140000200148006870470000140000204A
:1016D000044805490068C968044A4905490F515C36
:1016E000C84070471400002000100240F53D00087B
:1016F000044805490068C968044A8904490F515CD7
:10170000C84070471400002000100240F53D00085A
:1017100010B5184AD1680C20084004280BD00828BE
:1017200010D00C2810D050680004410F0120C003D5
:10173000491C884010BD1068C00601D50E4810BD78
:101740000E4810BD0E4810BD88020E4B000F185CED
:101750000902D368890F491CDB0301D5084A05E05B
:101760001268D20601D5044A00E0044A5043FEF74D
:10177000BFFC10BD0010024000093D000024F40031
:1017800000127A00EC3D0008F8B504460078FE4DE2
:10179000C0074AD0E8680007800F022807D0E86831
:1017A0000007800F032809D1E868C00306D5286820
:1017B00080033AD56068002873D036E00120626863
:1017C0000004824203D129680143296011E0052306
:1017D00001211B0489049A422A6802D10A432A6023
:1017E000F1E782432A602A68024000922868884311
:1017F0002860606800280CD0FFF76AFC064604E009
:10180000FFF766FC801B64287ED828688003F7D524
:101810000BE0FFF75DFC064604E0FFF759FC801B78
:101820006428F1D828688003F7D42078800741D550
:10183000E8681F270007800F3F02012807D0E868EB
:101840000007800F032809D1E868C00306D4286880
:10185000400717D5E068012823D113E0E06800288D
:1018600017D029680922914301432960FFF730FC12
:10187000064604E0FFF72CFC801B0228C4D8286829
:101880004007F7D568682169B843090208436860D2
:1018900010E02868400840002860FFF719FC064661
:1018A00005E095E0FFF714FC801B0228ACD82868FF
:1018B0004007F7D42078C00672D5E868B34E000719
:1018C000800F0AD0E06900282868B1495AD008433F
:1018D0002860FFF7FDFB074644E02868800502D535
:1018E000E069002874D0606A69683140884212D982
:1018F00001F08EF90028AFD16868616AB0430843EF
:1019000068606868000200E0DCE0218C000A0906DB
:10191000084368600FE06968B14301436960686823
:10192000218C0002000A090608436860606A01F021
:101930006FF9002890D1606A410B0120C003491C57
:101940008840E96809060A0F9249895CC8409249B3
:1019500008600020FFF7DAFB22E0FFF7B9FBC01BAD
:1019600002288BD828688005F7D56868616AB0437B
:10197000084368606868218C0002000A0906084371
:1019800068600DE088432860FFF7A2FB064604E08C
:10199000FFF79EFB801B022888D828688005F7D4B3
:1019A00020787E4E000723D560690028306910D06A
:1019B000012108433061FFF78BFB074604E0FFF786
:1019C00087FBC01B02287DD830698007F7D50FE060
:1019D00001E1400840003061FFF77AFB074604E070
:1019E000FFF776FBC01B02286CD830698007F7D45C
:1019F0002078400760D5A86B0027C00005D4A86BED
:101A0000012109070843A863012765480168C90542
:101A100011D40168821511430160FFF759FB009052
:101A200005E0FFF755FB0099401A64284AD85C4846
:101A30000068C005F5D55648A268824203D13169D5
:101A40000143316111E001218902002A07D00523F9
:101A50001B029A4203D132690A433261EFE73269CD
:101A600082433261306988433061A06800280ED01B
:101A7000FFF72EFB009006E0FFF72AFB0099411AC2
:101A8000484881421ED830698005F5D50DE0FFF742
:101A90001FFB009006E0FFF71BFB0099411A41482D
:101AA00081420FD830698005F5D4002F04D0A96B8E
:101AB000012000078143A9632078800630D53A4889
:101AC000421400E080E0A169002916D0AB68012132
:101AD0000B43AB606B6B0B436B63016A1143016299
:101AE000FFF7F6FA064604E0FFF7F2FA801B022839
:101AF0006AD8A8688007F7D512E0A96849084900A4
:101B0000A960016A91430162FFF7E2FA064604E028
:101B1000FFF7DEFA801B022856D8A8688007F7D4A2
:101B2000A06A002855D0E9680907890F032952D017
:101B3000012636060228286805D0B0432860FFF742
:101B4000C7FA044642E0B0432860FFF7C1FA0746EF
:101B500004E0FFF7BDFAC01B022835D828688001D1
:101B6000F7D4216BE06AEA680843616BFD231B042C
:101B70009A4311430843E860286830432860FFF720
:101B8000A7FA044617E000000010024000E0000041
:101B900000010000DC3D000814000020401002405D
:101BA000007000408813000000000140FFF790FA29
:101BB000001B022808D828688001F7D509E0FFF744
:101BC00087FA001B022801D90320F8BD286880018C
:101BD000F5D40020F8BD0120F8BD00688900503020
:101BE00008180068704700688900503008180260C3
:101BF0007047F8B50546044620352878012819D0E5
:101C000001202870022068702168CA20486221687B
:101C100053204862206881680122920291438160CA
:101C200020688168120191438160FFF751FA0646EE
:101C300000270FE00220F8BDFFF74AFA811B7D2044
:101C4000C000814206D92168FF20486203206870E5
:101C50002F70F8BD2068C0684007EDD52168FF20CF
:101C60004862012068702F700020F8BDF7B5054666
:101C700004462035287882B0012814D0012028702D
:101C8000022068702168CA20486221685320486297
:101C90002068806800264005FF27002812DAFFF739
:101CA00017FA00900AE0022005B0F0BDFFF710FA25
:101CB0000099411A7D20C00081421CD82068C0686C
:101CC0004007F3D420688168012292029143816029
:101CD0002068C16880221140204A8918C160FFF73E
:101CE000F7F900900DE0FFF7F3F90099411A7D2014
:101CF000C000814205D920684762032068702E70B9
:101D0000D2E72068C0684007EDD521680398486194
:101D100020688168C908C900816020688168049AC8
:101D2000114381600E480268012109050A430260DF
:101D300082680A438260206881680122920311430D
:101D400081602068816812111143816020684762B8
:101D5000012068702E700020A6E700007FFBFFFFC7
:101D6000000401400149022048707047180000201B
:101D700010B504460068C068400509D52046FFF745
:101D8000F1FF2068C16880221140054A8918C160AE
:101D9000012004490005486101202034607010BD15
:101DA0007FFBFFFF0004014070B5040005D025460D
:101DB00020356878002802D006E0012070BD0020A0
:101DC0002870204600F042F8022068702168CA207E
:101DD0004862216853204862204600F064FFFF21DA
:101DE0000028206803D0416204206870E5E782681B
:101DF000154B1A408260226890686368A669184390
:101E000023693343184390602268E06810612068BA
:101E1000026923891B041A4302612068C268802377
:101E20009A43C2602068C26C92089200C264E26960
:101E3000606902432068C36C1A43C264206841622F
:101E400001206870002070BDBFFF8FFF10B50068D3
:101E5000084988420DD108480169012292041143C2
:101E60000161002211460220FFF794F90220FFF7DA
:101E700087F910BD0028004040100240F8B5054623
:101E80000446203528780B46012815D001202870FB
:101E9000022068705878002A10D000F0F1FE98787F
:101EA00000F0EEFED8789E78000406435878197842
:101EB00000024903084316E00220F8BDC10603D51D
:101EC000EF2108400A305870D87800F0E1FE06048F
:101ED000587800F0DDFE00020643987800F0D8FE46
:101EE00006431878400306432168CA2048622168E7
:101EF00053204862204600F0D6FE0027002811D16A
:101F000010480640206846602068C16880229143DE
:101F1000C1602068806880060CD4204600F08CF8F0
:101F2000002807D02168FF204862042068702F70C5
:101F30000120F8BD2168FF204862012068702F70E1
:101F40000020F8BD3FFFFF00F8B5064604462036E6
:101F500030780D4601280ED00120307002207070BC
:101F6000206800278068002A07D040061AD5287804
:101F700000F086FE17E00220F8BD400600D4EF70A6
:101F8000287800F085FE0204687800F081FE0002E7
:101F90000243A87800F07CFE0243E8780004024384
:101FA00000920BE0EF702978A8780904084369785B
:101FB000EA78090212041143084300902168CA20FC
:101FC0004862216853204862204600F06CFE0028D9
:101FD0001FD118490098084021680860206881686E
:101FE00001229204914381602969E86808432168CD
:101FF0008A68104388602068C16880229143C1606C
:102000002068806880060CD4204600F015F800286F
:1020100007D02168FF2048620420707037700120CB
:10202000F8BD2168FF2048620120707037700020E1
:10203000F8BD00007F7F7F0070B504460068C1686E
:10204000A0229143C160FFF743F87D260546F600C4
:1020500006E0FFF73DF8401BB04201D9032070BDF8
:102060002068C0688006F4D5002070BD04220449B1
:102070000428086902D09043086170471043FBE7C9
:1020800000E000E070470000094910B5401E88429A
:1020900001D9012010BD074C60610321081F00F029
:1020A00095FD0020A06107202061002010BD0000E8
:1020B000FFFFFF0000E000E010B5FFF7E3FF10BDF9
:1020C00070477047F8B502680446D0691168060782
:1020D000360F07D1830605D58B0603D5204601F0C0
:1020E000D0F8F8BD95682023002E65D0EE07F60FD6
:1020F000FF2721370F4037435ED0C70706D0CF05F3
:1021000004D501271762E26E3A43E266820708D5DA
:10211000EA0706D0276802223A62E26E04273A43B1
:10212000E266420708D5EA0706D0256804222A623B
:10213000E26E02252A43E266020709D50A461A40E2
:10214000324305D0236808221A62E36E1343E36624
:10215000E26E002AC5D0800604D5880602D5204646
:1021600001F08FF8E06E000703D420688068400615
:102170001CD5204601F076F820688168490611D503
:10218000826840218A438260606E00280AD01D491F
:102190008163606EFEF7FEFD0028A2D0606E816B49
:1021A0008847F8BD2046FFF78CFFF8BD2046FFF7B3
:1021B00088FF0020E066F8BD2646C7026036002F83
:1021C0000ADA6D0208D50120000510627372B3723D
:1021D0002046FFF775FFF8BD050605D50D0603D5AA
:1021E000204601F09BF9F8BD4006FCD54806FAD51B
:1021F0002046146840218C431460737200F015F976
:10220000F8BD00005132000870B5040005D0254625
:102210006035687A002802D006E0012070BD0020F9
:102220002872204600F040F8242068722068016877
:10223000490849000160606A002802D0204600F089
:1022400071FF204601F05CF80128E7D02068416862
:102250000922D20291434160206881682A22914379
:10226000816020680168012211430160204600F06E
:10227000BFFF70BD10B50068094988420ED10948FA
:10228000416B0122920391434163032105204902DE
:102290000007FEF7D7FD1B20FEF768FF10BD00000A
:1022A000003801400010024000B50068144987B0B2
:1022B000884223D11348416B0122920311434163A9
:1022C000C26A01210A43C262C06A029108400590B5
:1022D000032040020090022001900320039004207C
:1022E0000490052069460007FEF730FE0022012118
:1022F0001B20FEF74FFF1B20FEF742FF07B000BD7B
:1023000000380140001002407047FFB50646044601
:102310006036707A83B00D46202858D1002D0CD03D
:102320000598002809D00120A1680003814207D147
:102330002069002804D1E80702D0012007B0F0BDD1
:10234000307A012843D0012030720020E06621203D
:102350007072FEF7BDFE019027464037059838821F
:102360000598788218E0788A401E78820698009056
:10237000002280212046019B01F003F9002818D19A
:102380000120A1680003814202D12069002812D0F7
:102390002168287888626D1C788A0028E3D1069825
:1023A0000090002240212046019B01F0EAF800281D
:1023B00008D00320C2E728882168C005C00D8862C4
:1023C000AD1CE9E72020707200203072B6E70220D1
:1023D000B4E730B5034660335C7A202C23D1002962
:1023E0000BD0002A09D0012584682D03AC4206D108
:1023F0000469002C03D1CC0701D0012030BD1C7A28
:10240000012C10D0C164014640310A824A82002169
:10241000C16621225A721972006801688022114334
:102420000160002030BD022030BD704700B50B4870
:1024300087B0C26A01210A43C262C06A02910840A1
:10244000059003200390302000901120019005207A
:1024500069460007FEF77AFD07B000BD0010024094
:1024600000B50A4885B0C16A49084900C162002028
:1024700002900321302000900391019105206946CC
:102480000007FEF763FD05B000BD0000001002402C
:1024900000B50521202209078A6200F07FF810208C
:1024A000886100F07BF88A6100F078F88A6200F0B9
:1024B00075F800BD30B508220021102005231B0748
:1024C0009861202401250BE04806010E9C6200F073
:1024D00065F89C6100F062F81869C00600D52943D0
:1024E0001046521ED2B20028EED19C62084630BD82
:1024F00030B50822102520230521044609070DE0E8
:1025000000F04CF8200601D58D6100E08D62600678
:10251000040E00F043F88B6100F040F81046521EA4
:10252000D2B200288B62EBD130BD00B5102205215C
:1025300009078A6120238B6100F030F88A6200F07D
:102540002DF88B6200F02AF8012000BD00B50521AE
:10255000202209078A6200F021F810238B6200F024
:102560001DF88A6100F01AF88B6100F017F800BDC1
:1025700000B50521202209078A6200F00FF810201B
:10258000886100F00BF88A6100F008F88A62086937
:10259000C00601D5002000BD012000BD0820401E5E
:1025A0000006000EFBD1704708B569460F2000F009
:1025B000BFFB68460078332807D015A001F040F82B
:1025C0006846017818A001F03BF8022000F008FDF1
:1025D00000281AD0012000F0A3FC002815D000200C
:1025E00000F07BFC002810D0012000F030FC002817
:1025F0000BD0002000F04EFC002806D0072000F091
:1026000003FC002801D0002008BD032008BD000005
:102610000D0A2074686973206973206E6F74206CD2
:1026200069733364680D0A000D0A25640D0A000001
:10263000F0B593B02E48FFF737FE2E4CE06A012527
:102640002843E062E06A28401290E06A02263043A4
:10265000E062E06A3040129000F05EF8012211461C
:102660002548FEF72FFD0520002280210007FEF7F8
:1026700029FD0A20FEF7DAFB34216846FDF785FDC7
:10268000FC21684601704570692181700821C17084
:1026900003270771712141710523062269461448F9
:1026A000FFF733FE0A20FEF7C1FB05200122C021FF
:1026B0000007FEF707FD012211460F48FEF702FD55
:1026C0000B48FFF7D7FDC0200DA981C105200007E9
:1026D0000839FEF73BFC0DA907480D95FEF736FCBF
:1026E000E06AA843E062E06AB043E06213B0F0BD84
:1026F0006C000020001002400004005010B500F0F3
:102700000BF80120FEF792FB052000224021000774
:10271000FEF7D8FC10BD000010B5114886B0C16AA4
:1027200001242143C162C16A21400591C26A02218C
:102730000A43C262C06A039108400590C02000901D
:10274000002002900520019469460007FEF7FEFB79
:10275000694604480094FEF7F9FB06B010BD00007E
:10276000001002400004005010B5FFF7C7FF6420BE
:10277000FEF75CFB0848FFF797FD0520012280214A
:102780000007FEF79FFC002201210448FEF79AFC97
:1027900000F0D6FA10BD00006C00002000040050CC
:1027A00010B5FEF71BFDFEF709FDFEF7FFFCFEF777
:1027B000F5FC0648C1680122D2039143C160044878
:1027C00001680322D2021143016010BD00100240D3
:1027D0000070004008B51848FFF70BFA00F02AFC1B
:1027E000FEF7E4FC15484168C943C90703D10168F5
:1027F0000422114301604168C943890703D4016879
:10280000082211430160FF200130FEF7DFFC0C4875
:10281000C16A01221143C162C16A11400091C26ABA
:1028200002210A43C262C06A0022084000900520CB
:102830000007FEF747FC08BD48000020007000407C
:102840000010024010B586B01A48FFF713FD1A4871
:10285000C16A49084900C162C16A02229143C1624A
:10286000C16A0424A143C16214480090032001906E
:102870000020029069461248FEF768FB0520694671
:102880000007FEF763FB69460E48FEF75FFBFEF7A5
:1028900079FA0D480168214301607D210022490138
:1028A0000A48FFF7E3F901210846FEF79FFC06B04E
:1028B00010BD00006C00002000100240FFFF00006F
:1028C0000008005000040050007000404800002044
:1028D0001CB52248204901600021032292070164AF
:1028E0004260C16101228161826381600261C160D5
:1028F00002234162C3630262C16204224261016336
:10290000FEF7A0F8002803D0632115A000F097FE81
:1029100000211248FDF7DEFF002803D0682110A037
:1029200000F08DFE1248009069460C48FEF728F82A
:10293000002803D070210AA000F081FE0748FEF7AE
:10294000F3F9002803D0772105A000F078FE0948AC
:10295000FEF75AF91CBD000000240140F4000020DD
:102960002E2E5C5372635C6164632E630000000072
:10297000040000085401002010B50E48FEF758F975
:102980000A210D48FEF770F90B48FEF755F80B4C7D
:10299000800501D4206803E00748FEF74FF8206067
:1029A0000749884202D20749012008700148FEF712
:1029B0002BF910BD54010020F40000202800002055
:1029C0001405000018000020F0B5254C87B0E06A1F
:1029D00004210843E062E06A08400590E06A80252F
:1029E0002843E062E06A28400590E06A012108433C
:1029F000E062E06A08400590E06A02263043E06247
:102A0000E06A30400590E06A08273843E062E06AF7
:102A1000694638400590134800900320019000203B
:102A200002901148FEF792FA69461048FEF78EFAB6
:102A300069460F48FEF78AFA69460E48FEF786FA9D
:102A4000E16A04208143E162E06AA843E062E06A4F
:102A5000B043E062E06AB843E06207B0F0BD000056
:102A600000100240FFFF000000080050000C005062
:102A7000001C00500004005010B50D4886B0C16A1B
:102A800001221143C162C06A052410400590022052
:102A90000090019000202407029069462046FEF72E
:102AA00055FA002202212046FEF70CFB06B010BDAD
:102AB0000010024030B52B492B4887B0002412C0CB
:102AC0007F2101608460C4600461FF214461416032
:102AD0000838FFF769F9002803D0432123A000F04C
:102AE000AEFD00212048FFF778F8244DA8422AD0F7
:102AF0001021684601704470847003940122694675
:102B000019480494FFF720FA002803D0502117A099
:102B100000F095FD012168460175032141751921D9
:102B200081751821C175012205A90F48FFF7A6F983
:102B3000002803D05A210DA000F081FD2A46002173
:102B40000948FFF750F80121002249030648FFF722
:102B50008DF8002803D0632104A000F070FD07B0B9
:102B600030BD000000280040480000202E2E2F53CA
:102B700072632F7274632E6300000000F232000053
:102B800010B50D480B490160E12149024160002167
:102B90008160C16001618161C1610C220162426199
:102BA0004162FFF731FB002803D0612103A000F050
:102BB00046FD10BD003801406C0000202E2E2F5322
:102BC00072632F75736172742E6300008307FF2296
:102BD000DB0E9A408907090E994000280BDA00079E
:102BE000000F0838830808489B001818C3699343EE
:102BF0000B43C3617047830804489B001B18186887
:102C0000904308431860704700ED00E000E400E0E6
:102C100070B517490023CA681206120F18D18A6BC3
:102C2000154CD500134A02D51268224009E08E6B7C
:102C300001252D072E438E6312688E6B2240AE4312
:102C40008E63A24204D103218903884200D101236B
:102C50000A48016849084900194301600068C00733
:102C6000C00F984201D0012070BD002070BD00004F
:102C700000100240007000400018000000200240D8
:102C800001090A2200075143000F4018C0B27047E3
:102C9000002102E00A38C0B2491C0A28FAD209070A
:102CA000090E0843704770B504460068C1684906BC
:102CB00013D40021C943C160FEF70AFA7D260546F8
:102CC000F60006E0FEF704FA401BB04201D90320EB
:102CD00070BD2068C0684006F4D5002070BD0000BB
:102CE00010B50248FFF744F810BD0000480000206E
:102CF00030B50C460546FFF718FC2046FFF7F8FBF9
:102D0000FFF736FC2846FFF7F3FBFFF731FCFFF730
:102D10000CFC641CE0B2FFF7EBFBFFF729FCFFF7AC
:102D2000C9FB0446FFF7B4FBFFF710FC204630BD9B
:102D300010B50C463221FFF7DBFF2070012010BDDB
:102D4000F8B52A4CAA20207060702948294E417895
:102D5000A1700078E0702648002508304178217184
:102D600000786071244831460068FDF719FAFDF7D4
:102D700040FB009068464078A07168460078E0719A
:102D80001E4831460068FDF70BFAFDF732FB009054
:102D9000684640782072684600786072184831466C
:102DA0000068FDF7FDF9FDF724FB404200906846FE
:102DB0004078A072684600780D4BE07259680C228A
:102DC0002046445D6D1C6118EDB29542F9D35960FF
:102DD0000749091D4B7883540978521C81540349D3
:102DE0000848521CFFF7F5FAF8BD00003400002037
:102DF000080000200000C8422C0000202000002015
:102E0000240000206C0000201CB5044669462020E8
:102E1000FFF78EFF002817D0684600786107C008CA
:102E2000C000490F014368460170202000F0FEFBFE
:102E3000002809D001A92020FFF77AFF6846017910
:102E40000078814201D000201CBD01201CBD1CB5B2
:102E5000044669462320FFF76BFF002817D0684619
:102E60000078E1014006400E0143C9B26846017096
:102E7000232000F0DBFB002809D001A92320FFF765
:102E800057FF684601790078814201D000201CBDBF
:102E900001201CBD1CB5044669462320FFF748FFEE
:102EA000002817D068460178BF200140A0010843E0
:102EB000C1B268460170232000F0B8FB002809D099
:102EC00001A92320FFF734FF684601790078814289
:102ED00001D000201CBD01201CBD1CB50446694664
:102EE0002320FFF725FF002817D068460178CF2060
:102EF000014020010843C1B268460170232000F060
:102F000095FB002809D001A92320FFF711FF68468F
:102F100001790078814201D000201CBD01201CBD38
:102F20003EB5044601A92020FFF702FF002851D03A
:102F300002A92320FFF7FCFE00284BD06846007949
:102F40002649020905D10A7812091201024368468E
:102F50000271002C06D0F7210823012C12D0022C7C
:102F600037D107E06846007908700107090F684605
:102F700001710FE0684602790A400271027A0A4044
:102F80001A4306E0684602790A401A430271027A3F
:102F90000A4002720179202000F048FB002819D075
:102FA0006846017A232000F041FB002812D06946D0
:102FB0002020FFF7BDFE684601780079814208D1E4
:102FC00069462320FFF7B4FE68460178007A814203
:102FD00001D000203EBD01203EBD000004000020C5
:102FE0001CB5044669462020FFF7A2FE002817D032
:102FF0006846007821010007000F0143C9B2684606
:103000000170202000F012FB002809D001A9202027
:10301000FFF78EFE684601790078814201D10120D8
:103020001CBD00201CBD10B5FEF758F8FFF744F892
:1030300010BD000010B524499CB00A680320C002EE
:1030400002430A6021490A6982430A611420009000
:103050008815029001200790032000248003099026
:1030600008940A946846FEF78FFB002800D0FEE71C
:103070000F200E900F9410941194002112940EA81A
:10308000FEF76CFA002800D0FEE721201390012003
:1030900000041490169413A8FEF794F9002800D0A9
:1030A000FEE7FEF70FFB7D21C900FDF721F8FEF7D3
:1030B000EBFF0420FEF7DAFF00221146501EFEF758
:1030C00069F81CB010BD00000070004040100240C4
:1030D00010480168821511430160C1680E4A114011
:1030E000C16001680D4A11400160816849084900CA
:1030F000816001680122920491430160C168FD2250
:1031000012049143C160002101610549C003886038
:1031100070470000001002400C40FF88F6FFF6FEEA
:1031200000ED00E010B5818CC90707D001684A683E
:1031300001235B049A43836A1A434A60818C89079E
:1031400007D501684A6801231B049A43C36A1A43DE
:103150004A60818C490707D501684A6801239B04AE
:103160009A43036B1A434A60818C090707D50168AB
:103170004A680123DB039A43436B1A434A60818CFC
:10318000C90607D50268916801231B039943836B25
:1031900019439160818C890607D501688A680123EB
:1031A0005B039A43C36B1A438A60818C490612D52C
:1031B00003685A6801210905046C8A4322435A6056
:1031C000026C8A4207D10268516803235B05994368
:1031D000436C19435160818C090607D501684A6820
:1031E0000123DB04806C9A4302434A6010BD000057
:1031F000F8B500260446C666FDF76AFF0546206856
:103200000068124F000709D501212B46002249050D
:103210002046009700F0B5F900280DD1206800681D
:1032200040070BD501212B46002289052046009737
:1032300000F0A7F9002801D00320F8BD2020603459
:103240006072A07226720020F8BD0000FFFFFF012F
:1032500010B5806A0022014640314A834A82FEF757
:1032600030FF10BD01680A68FF2321339A430A60CA
:1032700001688A68520852008A6020216030817299
:10328000704770B50246403201466031938B8D7AAB
:103290000C460168222D05D08869082210438861F8
:1032A000022070BD496A01268568360389B2B5429D
:1032B00002D10569002D0BD01940436D5D1C456599
:1032C0001970518B491E0904090C518307D015E070
:1032D000456D19402980416D891C4165F1E7016800
:1032E0000A68FF2321339A430A6001688A685208FA
:1032F00052008A602021A172FFF706F8002070BDFD
:10330000FEB50446016880682269E369104362697A
:10331000102700261A4310430A683546754B1A4099
:1033200002430A6020684168032212039143E26865
:1033300011434160704A2168A069914201D0226A1C
:1033400010438A680B231B029A4302438A606B4A2C
:1033500021686B4891420CD1C0688007800F06D06D
:1033600001283DD0022839D0032820D11EE00127B2
:103370001DE0644A91420AD1C0680C2108402BD05C
:1033800004282DD0082829D00C2810D10EE05A4A44
:1033900091420CD1C1680320800201401CD010155D
:1033A000091A1DD0091A19D0814200D1082702201C
:1033B000FDF736FF0190504B514922684039D81330
:1033C00000929A4235D1002F0CD0022F0DD0042F3D
:1033D00012D0082F1CD113E00027E8E70227E6E708
:1033E0000427E4E7FEF774F908E00868C00601D591
:1033F000454805E0454803E0FEF78AF9002873D008
:10340000626851005118814202D81103814201D2F1
:10341000012569E0010E06025008002330185941C9
:10342000FCF77CFE03210902394A411A914259D91D
:10343000EEE7E26982422DD13B0000F028F909064F
:10344000080B24192424241F2400019812E0FEF7FD
:103450004FF90FE008686168C00602D548082D4A98
:1034600001E02D4A48088018FCF742FE86B20BE0C6
:10347000FEF74EF9616840004A08F4E761680122EE
:1034800048081204EFE70125310909013007400F10
:10349000084327E03B0000F0FAF809070A0D061D73
:1034A000060606290600B3E7FEF712F914E0FEF758
:1034B0001FF911E008686168C00602D54A08124881
:1034C00001E012484A081018FCF712FE81B2009879
:1034D000C16009E0FEF71CF961684A088018FCF732
:1034E00007FE80B22168C8602846FEBD61684A08B0
:1034F000E9E70000F369FFEF0048004000380140B1
:10350000401002400044004000093D000024F40047
:10351000FFFC0F0000127A000048E8016921095CF5
:10352000212901D00220704702464032518A0029E9
:1035300012D0012381681B03994202D1016900293D
:1035400015D0C16C4B1CC364006809788162508A35
:10355000401E50820020704701680A6880239A4309
:103560000A6000680168402211430160F2E7C16C03
:1035700003680988C905C90D9962C16C891CC164B9
:10358000E5E7FFB581B017460E4604460A9D1DE0EB
:10359000681C1BD0002D05D0FDF79AFD0499401A38
:1035A000A84213D920680168FF22A132914301602B
:1035B0002068816849084900816020206034607279
:1035C000A07200202072032005B0F0BD2068C16900
:1035D0003046884304D00020B842D9D00020F3E719
:1035E0000120F9E710B50248FEF76CFD10BD0000A0
:1035F0006C00002070B515460E460446FEF795FF98
:103600002846FEF775FFFEF7B3FF3046FEF770FF62
:10361000FEF7AEFF2046FEF76BFFFEF7A9FFFEF7B1
:10362000BDFFFEF793FFFEF7B9FF70BD0B4610B567
:10363000014632221846FFF7DDFF012010BDFEE7EC
:103640000FB410B503A9044B044A029800F0BCF86B
:1036500010BC08BC04B01847AD3C00083000002086
:103660002021020C01D010211046020A01D0104680
:103670000839020901D01046091F820801D01046FE
:10368000891E420801D0881E7047081A704730B45E
:103690007446641E2578641CAB4200D21D46635DEF
:1036A0005B00E31830BC18474900CA02024310000F
:1036B00000D004204A0D01D001221043044A490DD4
:1036C000914201D102210843012800D10520704711
:1036D000FF070000F8B504464F1EC800083821183F
:1036E00015461E46086849683A4606239A4310D094
:1036F0002A463346FCF792FD3A46D200083AA31810
:103700001A687F1E5B68FCF77FFF06223B469343E7
:10371000EED1022F23D0042F11D0062F2FD12A460D
:103720003346FCF77BFDE36AA26AFCF76DFF2A468D
:103730003346FCF773FD636A226AFCF765FF2A468D
:103740003346FCF76BFDE369A269FCF75DFF2A468F
:103750003346FCF763FD63692269FCF755FF2A468F
:103760003346FCF75BFDE368A268FCF74DFF2A4691
:103770003346FCF753FD63682268FCF745FFF8BD4C
:1037800010B50122FDF717F810BD10B5FCF73CFF8E
:1037900010BD0000034A10B500201107FDF70BF81B
:1037A00010BD000001FDFFFF02E008C8121F08C1A4
:1037B000002AFAD170477047002001E001C1121FB2
:1037C000002AFBD170470000FFB58DB004460025EC
:1037D00006E025280AD0109A0F999047641C6D1CAA
:1037E00020780028F5D1284611B0F0BD002701212E
:1037F000484A009700E00743641C23780846203BB2
:1038000098401042F7D120782E2817D10420074382
:103810006078641C2A280CD10E98641C02C80091A0
:103820000E900BE000990A22514330394018641C75
:1038300000902078014630390929F3D920780028F2
:10384000D1D0642808D0692806D075281ED0109AD7
:103850000F9990476D1C5BE00A200E99019001C9F9
:103860000E91002802DA40422D2102E0390504D5EC
:103870002B216A461172012103E0F90704D02021AF
:10388000F7E70BAE0B910DE00021FAE70A200E9945
:10389000019001C90E91F7E70199FCF729FC30313D
:1038A000761E31700028F7D103A8801B20300190CC
:1038B000780701D5009801E0012000900199884225
:1038C00001DD401A00E000200027009006E002A879
:1038D000109AC05D0F9990476D1C7F1C0B98874212
:1038E000F5DB04E0109A30200F9990476D1C009989
:1038F000481E00900029F5DC05E03078109A761C0F
:103900000F9990476D1C0199481E01900029F4DC25
:10391000641C65E709280100F0B589B004460D462E
:103920004800069172494008884215DB7149884277
:1039300003DC884207D1002C05D020462946FFF73A
:103940001FFF09B0F0BD6C48002D02DD6B4909B0C6
:10395000F0BD6B4909B0F0BD6A49884211DA6A4985
:1039600088420BDA20462946FFF79EFE042801D143
:10397000FFF710FF2046294609B0F0BD0026F643A8
:103980005DE06D0061496D08884232DA6049884225
:1039900019DA0026012332469B0720462946FCF708
:1039A00033FE07460191012220462946FCF703FF1A
:1039B0000022584BFCF7CCFE3A46019BFCF796FCE4
:1039C00004460D463BE001260022524B2046294684
:1039D000FCF71AFE0746009100224E4B204629466E
:1039E000FCF7B6FE3A46009BFCF780FC04460D4609
:1039F00025E04949884219DA02260022474B204631
:103A00002946FCF70BFC0022424BFCF7FDFD074664
:103A100002910022414B20462946FCF799FE3A4686
:103A2000029BFCF763FC04460D4608E00326224691
:103A30002B4600203A49FCF759FC04460D46224625
:103A40002B4610461946FCF7E9FB07460B46024693
:103A50000191FCF7E3FB0246029032480B460391CA
:103A600006217844FFF736FE3A46019BFCF7D6FB69
:103A700000902D48019105217844039B029AFFF79D
:103A800029FE039B029AFCF7C9FB02460B460199EB
:103A90000098002E0BDAFCF7B7FD22462B46FCF708
:103AA000BDFB22462B46FCF759FE09B0F0BDFCF7E2
:103AB000ABFD22462B46FCF7B1FB1C4AF6007A44CC
:103AC00093191A685B68FCF743FE22462B46FCF705
:103AD0003FFE174A7A4493191A685B68FCF73EFE6A
:103AE000069A002AE1DA0122D207514009B0F0BD5E
:103AF000000010440000F07F182D4454FB21F93FD2
:103B0000FB21F9BF0000DC3F0000203E0000F33F36
:103B10000000E63F0000F03F008003400000F83F57
:103B20000000F0BF02040000C40300005E030000B8
:103B300028030000F0B51FB4039B54425D001646F5
:103B400026439C46F40F6D084B004E4E5B082C43F9
:103B50008E46B44205D847420743FC0F1C43B4428B
:103B600004D96346FFF711FE05B0F0BD464E66442A
:103B7000164309D0CC0F6646B61702273E402643AF
:103B800004461C4304D00BE0FFF7C6FE05B0F0BDB1
:103B9000002EFBD0012EF9D0022E32D0032E34D0CD
:103BA00014462C430BD0374CA54216D1A3420AD160
:103BB000012189078D438B43194603950DE070461B
:103BC00000280FDB25E0314F7F44002E0ED0012E60
:103BD00010D0022E15D0032E17D0A3421DD170464F
:103BE000002816DA2A482B4905B0F0BD79683868F4
:103BF00005B0F0BD01227968D2073868514005B0A0
:103C0000F0BD2348244905B0F0BD2148234905B043
:103C1000F0BD1F48224905B0F0BD5B1B1B153C2BB6
:103C200002DD1B481E490FE06446002C05DA3C24E7
:103C3000E34202DA0020014606E0039BFCF756FB54
:103C400049004908FFF768FE002EE4D0012E0BD092
:103C5000144A154B022E0CD0FCF77AFD0C4A0E4B81
:103C6000FCF776FD05B0F0BD0122D207514005B04A
:103C7000F0BDFCF76DFD064A074BFCF76FFD05B084
:103C8000F0BD00000000F07F000010C0CC0200007A
:103C9000182D4454FB21F9BFFB210940FB2109C029
:103CA000FB21F93F075C143326A6A13C04490968AF
:103CB000CA69D2435206FBD4C2B28A62704700007E
:103CC0006C000020FDF712FAFFF7B4F9FEF77CFE56
:103CD000FEF756FFFEF7EEFEFEF7FAFDFEF74CFE8E
:103CE000FEF75EFDFEF7A2FBFEF75EFC002801D0AA
:103CF000FEF75AFCFEF79CFC3348FEF7BBFA334D47
:103D0000334CFEF79FFDFEF791FBFEF763FD2F4856
:103D1000FCF7ACFDA868FCF761FBFCF783FB0646EB
:103D20000F462868FCF75AFBFCF77CFB32463B4603
:103D3000FFF700FF0022274BFCF770FA032252071F
:103D4000254BFCF7D3FAFCF781FBA060A868FCF7D1
:103D500045FB0121C9074840FCF764FB06460F46B6
:103D60006868FCF73BFBFCF75DFB32463B46FFF720
:103D7000E1FE0022174BFCF751FA03225207164BC3
:103D8000FCF7B4FAFCF762FBE060FEF7EDFCFEF72F
:103D900067FB0E48A1680C300160E16841600020BB
:103DA000A0700A20FDF742F8FEF742FC6068401E52
:103DB000606003D1FEF7E0FD0120606020780128FB
:103DC0009FD1FEF759FE9CE76C000020DC0000202C
:103DD0001800002000806640FB2109400000000020
:103DE0000000000001020304060708090304060896
:103DF0000C10182030000000000102030400000035
:103E00004FBB610567ACDD3F182D4454FB21E93FF2
:103E10009BF681D20B73EF3F182D4454FB21F93FE1
:103E2000E2652F227F2B7A3C075C143326A6813C67
:103E3000BDCBF07A8807703C075C143326A6913C12
:103E4000C4EB98999999C9BF711623FEC671BCBF7E
:103E50006D9A74AFF2B0B3BF9AFDDE522DDEADBFE6
:103E60002F6C6A2C44B4A2BF0D5555555555D53FFE
:103E7000FF8300922449C23F6E204CC5CD45B73F19
:103E8000513DD0A0660DB13FEB0D76244B7BA93F91
:103E900011DA22E33AAD903F00000000000000007C
:103EA000C03E00080000002034000000A8370008D1
:103EB000F43E00083400002084050000B8370008F4
:103EC00000000000000000000000000000000000F2
:103ED0000800000080841E000000050001000000B2
:103EE00000000000000000000000000000000000D2
:043EF00000000000CE
:04000005080000C12E
:00000001FF
